{
  "contractName": "NegocioFidelizado",
  "abi": [
    {
      "inputs": [
        {
          "internalType": "string",
          "name": "name_",
          "type": "string"
        },
        {
          "internalType": "string",
          "name": "symbol_",
          "type": "string"
        },
        {
          "internalType": "uint256",
          "name": "totalSupply_",
          "type": "uint256"
        }
      ],
      "stateMutability": "nonpayable",
      "type": "constructor"
    },
    {
      "anonymous": false,
      "inputs": [
        {
          "indexed": true,
          "internalType": "address",
          "name": "owner",
          "type": "address"
        },
        {
          "indexed": true,
          "internalType": "address",
          "name": "spender",
          "type": "address"
        },
        {
          "indexed": false,
          "internalType": "uint256",
          "name": "value",
          "type": "uint256"
        }
      ],
      "name": "Approval",
      "type": "event"
    },
    {
      "anonymous": false,
      "inputs": [
        {
          "indexed": false,
          "internalType": "address",
          "name": "",
          "type": "address"
        }
      ],
      "name": "NuevoCajero",
      "type": "event"
    },
    {
      "anonymous": false,
      "inputs": [
        {
          "indexed": true,
          "internalType": "address",
          "name": "from",
          "type": "address"
        },
        {
          "indexed": true,
          "internalType": "address",
          "name": "to",
          "type": "address"
        },
        {
          "indexed": false,
          "internalType": "uint256",
          "name": "value",
          "type": "uint256"
        }
      ],
      "name": "Transfer",
      "type": "event"
    },
    {
      "inputs": [],
      "name": "AddContrract",
      "outputs": [
        {
          "internalType": "address",
          "name": "",
          "type": "address"
        }
      ],
      "stateMutability": "view",
      "type": "function",
      "constant": true
    },
    {
      "inputs": [
        {
          "internalType": "address",
          "name": "owner",
          "type": "address"
        },
        {
          "internalType": "address",
          "name": "spender",
          "type": "address"
        }
      ],
      "name": "allowance",
      "outputs": [
        {
          "internalType": "uint256",
          "name": "",
          "type": "uint256"
        }
      ],
      "stateMutability": "view",
      "type": "function",
      "constant": true
    },
    {
      "inputs": [
        {
          "internalType": "address",
          "name": "spender",
          "type": "address"
        },
        {
          "internalType": "uint256",
          "name": "amount",
          "type": "uint256"
        }
      ],
      "name": "approve",
      "outputs": [
        {
          "internalType": "bool",
          "name": "",
          "type": "bool"
        }
      ],
      "stateMutability": "nonpayable",
      "type": "function"
    },
    {
      "inputs": [
        {
          "internalType": "address",
          "name": "account",
          "type": "address"
        }
      ],
      "name": "balanceOf",
      "outputs": [
        {
          "internalType": "uint256",
          "name": "",
          "type": "uint256"
        }
      ],
      "stateMutability": "view",
      "type": "function",
      "constant": true
    },
    {
      "inputs": [],
      "name": "decimals",
      "outputs": [
        {
          "internalType": "uint8",
          "name": "",
          "type": "uint8"
        }
      ],
      "stateMutability": "view",
      "type": "function",
      "constant": true
    },
    {
      "inputs": [
        {
          "internalType": "address",
          "name": "spender",
          "type": "address"
        },
        {
          "internalType": "uint256",
          "name": "subtractedValue",
          "type": "uint256"
        }
      ],
      "name": "decreaseAllowance",
      "outputs": [
        {
          "internalType": "bool",
          "name": "",
          "type": "bool"
        }
      ],
      "stateMutability": "nonpayable",
      "type": "function"
    },
    {
      "inputs": [
        {
          "internalType": "address",
          "name": "spender",
          "type": "address"
        },
        {
          "internalType": "uint256",
          "name": "addedValue",
          "type": "uint256"
        }
      ],
      "name": "increaseAllowance",
      "outputs": [
        {
          "internalType": "bool",
          "name": "",
          "type": "bool"
        }
      ],
      "stateMutability": "nonpayable",
      "type": "function"
    },
    {
      "inputs": [],
      "name": "name",
      "outputs": [
        {
          "internalType": "string",
          "name": "",
          "type": "string"
        }
      ],
      "stateMutability": "view",
      "type": "function",
      "constant": true
    },
    {
      "inputs": [],
      "name": "symbol",
      "outputs": [
        {
          "internalType": "string",
          "name": "",
          "type": "string"
        }
      ],
      "stateMutability": "view",
      "type": "function",
      "constant": true
    },
    {
      "inputs": [],
      "name": "totalSupply",
      "outputs": [
        {
          "internalType": "uint256",
          "name": "",
          "type": "uint256"
        }
      ],
      "stateMutability": "view",
      "type": "function",
      "constant": true
    },
    {
      "inputs": [
        {
          "internalType": "address",
          "name": "to",
          "type": "address"
        },
        {
          "internalType": "uint256",
          "name": "amount",
          "type": "uint256"
        }
      ],
      "name": "transfer",
      "outputs": [
        {
          "internalType": "bool",
          "name": "",
          "type": "bool"
        }
      ],
      "stateMutability": "nonpayable",
      "type": "function"
    },
    {
      "inputs": [
        {
          "internalType": "address",
          "name": "from",
          "type": "address"
        },
        {
          "internalType": "address",
          "name": "to",
          "type": "address"
        },
        {
          "internalType": "uint256",
          "name": "amount",
          "type": "uint256"
        }
      ],
      "name": "transferFrom",
      "outputs": [
        {
          "internalType": "bool",
          "name": "",
          "type": "bool"
        }
      ],
      "stateMutability": "nonpayable",
      "type": "function"
    },
    {
      "inputs": [],
      "name": "addMaestro",
      "outputs": [
        {
          "internalType": "address",
          "name": "",
          "type": "address"
        }
      ],
      "stateMutability": "view",
      "type": "function",
      "constant": true
    },
    {
      "inputs": [],
      "name": "addNegocio",
      "outputs": [
        {
          "internalType": "address",
          "name": "",
          "type": "address"
        }
      ],
      "stateMutability": "view",
      "type": "function",
      "constant": true
    },
    {
      "inputs": [
        {
          "internalType": "uint256",
          "name": "numTokens",
          "type": "uint256"
        }
      ],
      "name": "CalculeCostoTokens",
      "outputs": [
        {
          "internalType": "uint256",
          "name": "",
          "type": "uint256"
        }
      ],
      "stateMutability": "pure",
      "type": "function",
      "constant": true
    },
    {
      "inputs": [
        {
          "internalType": "uint256",
          "name": "numTokens",
          "type": "uint256"
        }
      ],
      "name": "crearTokens",
      "outputs": [],
      "stateMutability": "payable",
      "type": "function",
      "payable": true
    },
    {
      "inputs": [
        {
          "internalType": "address",
          "name": "_addCajero",
          "type": "address"
        }
      ],
      "name": "_AsigarCajero",
      "outputs": [],
      "stateMutability": "nonpayable",
      "type": "function"
    },
    {
      "inputs": [
        {
          "internalType": "address",
          "name": "address_",
          "type": "address"
        }
      ],
      "name": "SaldoGeneral",
      "outputs": [
        {
          "internalType": "uint256",
          "name": "",
          "type": "uint256"
        }
      ],
      "stateMutability": "view",
      "type": "function",
      "constant": true
    },
    {
      "inputs": [
        {
          "internalType": "address",
          "name": "_addCajero",
          "type": "address"
        },
        {
          "internalType": "uint256",
          "name": "amount",
          "type": "uint256"
        }
      ],
      "name": "transferTokens",
      "outputs": [],
      "stateMutability": "nonpayable",
      "type": "function"
    }
  ],
  "bytecode": "0x60806040523480156200001157600080fd5b506040516200216738038062002167833981810160405281019062000037919062000451565b82828233836004908051906020019062000053929190620001c9565b5080600360006101000a81548173ffffffffffffffffffffffffffffffffffffffff021916908373ffffffffffffffffffffffffffffffffffffffff1602179055508260059080519060200190620000ad929190620001c9565b508160028190555081600080600360009054906101000a900473ffffffffffffffffffffffffffffffffffffffff1673ffffffffffffffffffffffffffffffffffffffff1673ffffffffffffffffffffffffffffffffffffffff168152602001908152602001600020819055505050505030600760006101000a81548173ffffffffffffffffffffffffffffffffffffffff021916908373ffffffffffffffffffffffffffffffffffffffff160217905550826008908051906020019062000177929190620001c9565b508060098190555033600660006101000a81548173ffffffffffffffffffffffffffffffffffffffff021916908373ffffffffffffffffffffffffffffffffffffffff16021790555050505062000550565b828054620001d7906200051a565b90600052602060002090601f016020900481019282620001fb576000855562000247565b82601f106200021657805160ff191683800117855562000247565b8280016001018555821562000247579182015b828111156200024657825182559160200191906001019062000229565b5b5090506200025691906200025a565b5090565b5b80821115620002755760008160009055506001016200025b565b5090565b6000604051905090565b600080fd5b600080fd5b600080fd5b600080fd5b6000601f19601f8301169050919050565b7f4e487b7100000000000000000000000000000000000000000000000000000000600052604160045260246000fd5b620002e28262000297565b810181811067ffffffffffffffff82111715620003045762000303620002a8565b5b80604052505050565b60006200031962000279565b9050620003278282620002d7565b919050565b600067ffffffffffffffff8211156200034a5762000349620002a8565b5b620003558262000297565b9050602081019050919050565b60005b838110156200038257808201518184015260208101905062000365565b8381111562000392576000848401525b50505050565b6000620003af620003a9846200032c565b6200030d565b905082815260208101848484011115620003ce57620003cd62000292565b5b620003db84828562000362565b509392505050565b600082601f830112620003fb57620003fa6200028d565b5b81516200040d84826020860162000398565b91505092915050565b6000819050919050565b6200042b8162000416565b81146200043757600080fd5b50565b6000815190506200044b8162000420565b92915050565b6000806000606084860312156200046d576200046c62000283565b5b600084015167ffffffffffffffff8111156200048e576200048d62000288565b5b6200049c86828701620003e3565b935050602084015167ffffffffffffffff811115620004c057620004bf62000288565b5b620004ce86828701620003e3565b9250506040620004e1868287016200043a565b9150509250925092565b7f4e487b7100000000000000000000000000000000000000000000000000000000600052602260045260246000fd5b600060028204905060018216806200053357607f821691505b602082108114156200054a5762000549620004eb565b5b50919050565b611c0780620005606000396000f3fe6080604052600436106101145760003560e01c806370a08231116100a0578063a9059cbb11610064578063a9059cbb146103f1578063bec3fa171461042e578063ca67c15914610457578063dd62ed3e14610473578063e01a1b8c146104b057610114565b806370a08231146102e4578063813ca0a314610321578063933eedbd1461034c57806395d89b4114610389578063a457c2d7146103b457610114565b806323b872dd116100e757806323b872dd146101d75780632778b5d814610214578063313ce56714610251578063395093511461027c57806359939ebe146102b957610114565b806306cc3e1c1461011957806306fdde0314610144578063095ea7b31461016f57806318160ddd146101ac575b600080fd5b34801561012557600080fd5b5061012e6104d9565b60405161013b919061125a565b60405180910390f35b34801561015057600080fd5b50610159610503565b604051610166919061130e565b60405180910390f35b34801561017b57600080fd5b5061019660048036038101906101919190611397565b610595565b6040516101a391906113f2565b60405180910390f35b3480156101b857600080fd5b506101c16105b8565b6040516101ce919061141c565b60405180910390f35b3480156101e357600080fd5b506101fe60048036038101906101f99190611437565b6105c2565b60405161020b91906113f2565b60405180910390f35b34801561022057600080fd5b5061023b6004803603810190610236919061148a565b6105f1565b604051610248919061141c565b60405180910390f35b34801561025d57600080fd5b50610266610603565b60405161027391906114d3565b60405180910390f35b34801561028857600080fd5b506102a3600480360381019061029e9190611397565b61060c565b6040516102b091906113f2565b60405180910390f35b3480156102c557600080fd5b506102ce610643565b6040516102db919061125a565b60405180910390f35b3480156102f057600080fd5b5061030b6004803603810190610306919061148a565b61064b565b604051610318919061141c565b60405180910390f35b34801561032d57600080fd5b50610336610693565b604051610343919061125a565b60405180910390f35b34801561035857600080fd5b50610373600480360381019061036e91906114ee565b6106bd565b604051610380919061141c565b60405180910390f35b34801561039557600080fd5b5061039e6106e8565b6040516103ab919061130e565b60405180910390f35b3480156103c057600080fd5b506103db60048036038101906103d69190611397565b61077a565b6040516103e891906113f2565b60405180910390f35b3480156103fd57600080fd5b5061041860048036038101906104139190611397565b6107f1565b60405161042591906113f2565b60405180910390f35b34801561043a57600080fd5b5061045560048036038101906104509190611397565b610814565b005b610471600480360381019061046c91906114ee565b61082f565b005b34801561047f57600080fd5b5061049a6004803603810190610495919061151b565b6108e2565b6040516104a7919061141c565b60405180910390f35b3480156104bc57600080fd5b506104d760048036038101906104d2919061148a565b610969565b005b6000600760009054906101000a900473ffffffffffffffffffffffffffffffffffffffff16905090565b6060600480546105129061158a565b80601f016020809104026020016040519081016040528092919081815260200182805461053e9061158a565b801561058b5780601f106105605761010080835404028352916020019161058b565b820191906000526020600020905b81548152906001019060200180831161056e57829003601f168201915b5050505050905090565b6000806105a0610b3e565b90506105ad818585610b46565b600191505092915050565b6000600254905090565b6000806105cd610b3e565b90506105da858285610d11565b6105e5858585610d9d565b60019150509392505050565b60006105fc8261064b565b9050919050565b60006002905090565b600080610617610b3e565b905061063881858561062985896108e2565b61063391906115eb565b610b46565b600191505092915050565b600030905090565b60008060008373ffffffffffffffffffffffffffffffffffffffff1673ffffffffffffffffffffffffffffffffffffffff168152602001908152602001600020549050919050565b6000600660009054906101000a900473ffffffffffffffffffffffffffffffffffffffff16905090565b60006298968082674563918244f400006106d79190611641565b6106e191906116ca565b9050919050565b6060600580546106f79061158a565b80601f01602080910402602001604051908101604052809291908181526020018280546107239061158a565b80156107705780601f1061074557610100808354040283529160200191610770565b820191906000526020600020905b81548152906001019060200180831161075357829003601f168201915b5050505050905090565b600080610785610b3e565b9050600061079382866108e2565b9050838110156107d8576040517f08c379a00000000000000000000000000000000000000000000000000000000081526004016107cf9061176d565b60405180910390fd5b6107e58286868403610b46565b60019250505092915050565b6000806107fc610b3e565b9050610809818585610d9d565b600191505092915050565b61082a826064836108259190611641565b6107f1565b505050565b33600660009054906101000a900473ffffffffffffffffffffffffffffffffffffffff1673ffffffffffffffffffffffffffffffffffffffff168173ffffffffffffffffffffffffffffffffffffffff16146108c0576040517f08c379a00000000000000000000000000000000000000000000000000000000081526004016108b7906117ff565b60405180910390fd5b6108c9826106bd565b34146108d457600080fd5b6108de3383611015565b5050565b6000600160008473ffffffffffffffffffffffffffffffffffffffff1673ffffffffffffffffffffffffffffffffffffffff16815260200190815260200160002060008373ffffffffffffffffffffffffffffffffffffffff1673ffffffffffffffffffffffffffffffffffffffff16815260200190815260200160002054905092915050565b33600660009054906101000a900473ffffffffffffffffffffffffffffffffffffffff1673ffffffffffffffffffffffffffffffffffffffff168173ffffffffffffffffffffffffffffffffffffffff16146109fa576040517f08c379a00000000000000000000000000000000000000000000000000000000081526004016109f1906117ff565b60405180910390fd5b604051806060016040528060088054610a129061158a565b80601f0160208091040260200160405190810160405280929190818152602001828054610a3e9061158a565b8015610a8b5780601f10610a6057610100808354040283529160200191610a8b565b820191906000526020600020905b815481529060010190602001808311610a6e57829003601f168201915b505050505081526020016000815260200160011515815250600b60008473ffffffffffffffffffffffffffffffffffffffff1673ffffffffffffffffffffffffffffffffffffffff1681526020019081526020016000206000820151816000019080519060200190610afe929190611176565b506020820151816001015560408201518160020160006101000a81548160ff021916908315150217905550905050610b3982620186a06107f1565b505050565b600033905090565b600073ffffffffffffffffffffffffffffffffffffffff168373ffffffffffffffffffffffffffffffffffffffff161415610bb6576040517f08c379a0000000000000000000000000000000000000000000000000000000008152600401610bad90611891565b60405180910390fd5b600073ffffffffffffffffffffffffffffffffffffffff168273ffffffffffffffffffffffffffffffffffffffff161415610c26576040517f08c379a0000000000000000000000000000000000000000000000000000000008152600401610c1d90611923565b60405180910390fd5b80600160008573ffffffffffffffffffffffffffffffffffffffff1673ffffffffffffffffffffffffffffffffffffffff16815260200190815260200160002060008473ffffffffffffffffffffffffffffffffffffffff1673ffffffffffffffffffffffffffffffffffffffff168152602001908152602001600020819055508173ffffffffffffffffffffffffffffffffffffffff168373ffffffffffffffffffffffffffffffffffffffff167f8c5be1e5ebec7d5bd14f71427d1e84f3dd0314c0f7b2291e5b200ac8c7c3b92583604051610d04919061141c565b60405180910390a3505050565b6000610d1d84846108e2565b90507fffffffffffffffffffffffffffffffffffffffffffffffffffffffffffffffff8114610d975781811015610d89576040517f08c379a0000000000000000000000000000000000000000000000000000000008152600401610d809061198f565b60405180910390fd5b610d968484848403610b46565b5b50505050565b600073ffffffffffffffffffffffffffffffffffffffff168373ffffffffffffffffffffffffffffffffffffffff161415610e0d576040517f08c379a0000000000000000000000000000000000000000000000000000000008152600401610e0490611a21565b60405180910390fd5b600073ffffffffffffffffffffffffffffffffffffffff168273ffffffffffffffffffffffffffffffffffffffff161415610e7d576040517f08c379a0000000000000000000000000000000000000000000000000000000008152600401610e7490611ab3565b60405180910390fd5b610e8883838361116c565b60008060008573ffffffffffffffffffffffffffffffffffffffff1673ffffffffffffffffffffffffffffffffffffffff16815260200190815260200160002054905081811015610f0e576040517f08c379a0000000000000000000000000000000000000000000000000000000008152600401610f0590611b45565b60405180910390fd5b8181036000808673ffffffffffffffffffffffffffffffffffffffff1673ffffffffffffffffffffffffffffffffffffffff16815260200190815260200160002081905550816000808573ffffffffffffffffffffffffffffffffffffffff1673ffffffffffffffffffffffffffffffffffffffff168152602001908152602001600020600082825401925050819055508273ffffffffffffffffffffffffffffffffffffffff168473ffffffffffffffffffffffffffffffffffffffff167fddf252ad1be2c89b69c2b068fc378daa952ba7f163c4a11628f55a4df523b3ef84604051610ffc919061141c565b60405180910390a361100f848484611171565b50505050565b600073ffffffffffffffffffffffffffffffffffffffff168273ffffffffffffffffffffffffffffffffffffffff161415611085576040517f08c379a000000000000000000000000000000000000000000000000000000000815260040161107c90611bb1565b60405180910390fd5b6110916000838361116c565b80600260008282546110a391906115eb565b92505081905550806000808473ffffffffffffffffffffffffffffffffffffffff1673ffffffffffffffffffffffffffffffffffffffff168152602001908152602001600020600082825401925050819055508173ffffffffffffffffffffffffffffffffffffffff16600073ffffffffffffffffffffffffffffffffffffffff167fddf252ad1be2c89b69c2b068fc378daa952ba7f163c4a11628f55a4df523b3ef83604051611154919061141c565b60405180910390a361116860008383611171565b5050565b505050565b505050565b8280546111829061158a565b90600052602060002090601f0160209004810192826111a457600085556111eb565b82601f106111bd57805160ff19168380011785556111eb565b828001600101855582156111eb579182015b828111156111ea5782518255916020019190600101906111cf565b5b5090506111f891906111fc565b5090565b5b808211156112155760008160009055506001016111fd565b5090565b600073ffffffffffffffffffffffffffffffffffffffff82169050919050565b600061124482611219565b9050919050565b61125481611239565b82525050565b600060208201905061126f600083018461124b565b92915050565b600081519050919050565b600082825260208201905092915050565b60005b838110156112af578082015181840152602081019050611294565b838111156112be576000848401525b50505050565b6000601f19601f8301169050919050565b60006112e082611275565b6112ea8185611280565b93506112fa818560208601611291565b611303816112c4565b840191505092915050565b6000602082019050818103600083015261132881846112d5565b905092915050565b600080fd5b61133e81611239565b811461134957600080fd5b50565b60008135905061135b81611335565b92915050565b6000819050919050565b61137481611361565b811461137f57600080fd5b50565b6000813590506113918161136b565b92915050565b600080604083850312156113ae576113ad611330565b5b60006113bc8582860161134c565b92505060206113cd85828601611382565b9150509250929050565b60008115159050919050565b6113ec816113d7565b82525050565b600060208201905061140760008301846113e3565b92915050565b61141681611361565b82525050565b6000602082019050611431600083018461140d565b92915050565b6000806000606084860312156114505761144f611330565b5b600061145e8682870161134c565b935050602061146f8682870161134c565b925050604061148086828701611382565b9150509250925092565b6000602082840312156114a05761149f611330565b5b60006114ae8482850161134c565b91505092915050565b600060ff82169050919050565b6114cd816114b7565b82525050565b60006020820190506114e860008301846114c4565b92915050565b60006020828403121561150457611503611330565b5b600061151284828501611382565b91505092915050565b6000806040838503121561153257611531611330565b5b60006115408582860161134c565b92505060206115518582860161134c565b9150509250929050565b7f4e487b7100000000000000000000000000000000000000000000000000000000600052602260045260246000fd5b600060028204905060018216806115a257607f821691505b602082108114156115b6576115b561155b565b5b50919050565b7f4e487b7100000000000000000000000000000000000000000000000000000000600052601160045260246000fd5b60006115f682611361565b915061160183611361565b9250827fffffffffffffffffffffffffffffffffffffffffffffffffffffffffffffffff03821115611636576116356115bc565b5b828201905092915050565b600061164c82611361565b915061165783611361565b9250817fffffffffffffffffffffffffffffffffffffffffffffffffffffffffffffffff04831182151516156116905761168f6115bc565b5b828202905092915050565b7f4e487b7100000000000000000000000000000000000000000000000000000000600052601260045260246000fd5b60006116d582611361565b91506116e083611361565b9250826116f0576116ef61169b565b5b828204905092915050565b7f45524332303a2064656372656173656420616c6c6f77616e63652062656c6f7760008201527f207a65726f000000000000000000000000000000000000000000000000000000602082015250565b6000611757602583611280565b9150611762826116fb565b604082019050919050565b600060208201905081810360008301526117868161174a565b9050919050565b7f536f6c6f20656c204d61657374726f207075656465207265616c697a6172206c60008201527f61206f7065726163696f6e2e0000000000000000000000000000000000000000602082015250565b60006117e9602c83611280565b91506117f48261178d565b604082019050919050565b60006020820190508181036000830152611818816117dc565b9050919050565b7f45524332303a20617070726f76652066726f6d20746865207a65726f2061646460008201527f7265737300000000000000000000000000000000000000000000000000000000602082015250565b600061187b602483611280565b91506118868261181f565b604082019050919050565b600060208201905081810360008301526118aa8161186e565b9050919050565b7f45524332303a20617070726f766520746f20746865207a65726f20616464726560008201527f7373000000000000000000000000000000000000000000000000000000000000602082015250565b600061190d602283611280565b9150611918826118b1565b604082019050919050565b6000602082019050818103600083015261193c81611900565b9050919050565b7f45524332303a20696e73756666696369656e7420616c6c6f77616e6365000000600082015250565b6000611979601d83611280565b915061198482611943565b602082019050919050565b600060208201905081810360008301526119a88161196c565b9050919050565b7f45524332303a207472616e736665722066726f6d20746865207a65726f20616460008201527f6472657373000000000000000000000000000000000000000000000000000000602082015250565b6000611a0b602583611280565b9150611a16826119af565b604082019050919050565b60006020820190508181036000830152611a3a816119fe565b9050919050565b7f45524332303a207472616e7366657220746f20746865207a65726f206164647260008201527f6573730000000000000000000000000000000000000000000000000000000000602082015250565b6000611a9d602383611280565b9150611aa882611a41565b604082019050919050565b60006020820190508181036000830152611acc81611a90565b9050919050565b7f45524332303a207472616e7366657220616d6f756e742065786365656473206260008201527f616c616e63650000000000000000000000000000000000000000000000000000602082015250565b6000611b2f602683611280565b9150611b3a82611ad3565b604082019050919050565b60006020820190508181036000830152611b5e81611b22565b9050919050565b7f45524332303a206d696e7420746f20746865207a65726f206164647265737300600082015250565b6000611b9b601f83611280565b9150611ba682611b65565b602082019050919050565b60006020820190508181036000830152611bca81611b8e565b905091905056fea264697066735822122072506758a30bf5725037723e2ff5d5b141908ce275511f3334d988184cb8534764736f6c63430008080033",
  "immutableReferences": {},
  "source": "// SPDX-License-Identifier: MIT\r\n\r\npragma solidity >=0.7.0 <0.9.0;\r\nimport \"./ERC20.sol\";\r\n\r\n// Contrato autogestionable por fidelizame\r\ncontract NegocioFidelizado is ERC20 {\r\n    // Direcciones iniciales\r\n    address private _addMaestro;\r\n    address private _addNegocio;\r\n    string private _NombreDelNegocio;\r\n    uint256 private _totalSupply;\r\n\r\n    // Constructor del Smart Contract\r\n    constructor(// Oxxo POXXO 100000\r\n        string memory name_,\r\n        string memory symbol_,\r\n        uint256 totalSupply_\r\n    ) ERC20(name_, symbol_, totalSupply_, msg.sender) {\r\n        _addNegocio = address(this);\r\n        _NombreDelNegocio = name_;\r\n        _totalSupply = totalSupply_;\r\n        _addMaestro = msg.sender;\r\n    }\r\n\r\n    // Get Variables\r\n    function addMaestro() public view virtual returns (address) {\r\n        return _addMaestro;\r\n    }\r\n\r\n    function addNegocio() public view virtual returns (address) {\r\n        return _addNegocio;\r\n    }\r\n\r\n    //--------------------------------------------------SUPPLY----------------------------------------\r\n\r\n    // Costo por TOKENS\r\n    // Por cada 10k tokens se pagar 0.5 BNB\r\n    function CalculeCostoTokens(uint256 numTokens)\r\n        public\r\n        pure\r\n        returns (uint256)\r\n    {\r\n        return (5000000000000000000 * numTokens) / (10000000);\r\n        // return (5000 * numTokens) / (100000);\r\n    }\r\n\r\n    // Creacion de nuevos Tokens\r\n\r\n    function crearTokens(uint256 numTokens)\r\n        public\r\n        payable\r\n        UnicamenteaddMaestro(msg.sender)\r\n    {\r\n        // Mayor a 10 tokens\r\n        // require(numTokens >= 10000);\r\n        require(msg.value == CalculeCostoTokens(numTokens));\r\n        _mint(msg.sender, numTokens);\r\n    }\r\n\r\n    //--------------------------------------------------BASE DE DATOS---------------------------------\r\n    struct usuarios {\r\n        string tienda;\r\n        uint256 num_usos;\r\n        bool operativo;\r\n        //data extra\r\n    }\r\n\r\n    struct cajero {\r\n        string tienda;\r\n        uint256 users_atendidos;\r\n        bool operativo;\r\n        //data extra\r\n    }\r\n\r\n    mapping(address => usuarios) private _usuarios;\r\n    mapping(address => cajero) private _cajeros;\r\n\r\n    //--------------------------------------------------EVENTOS----------------------------------------\r\n    event NuevoCajero(address);\r\n\r\n    //--------------------------------------------------MODIFICADORES----------------------------------------\r\n\r\n    // Modificador para hacer funciones solamente accesibles por el owner del contrato\r\n    modifier UnicamenteCajero(address _direccion) {\r\n        require(\r\n            _cajeros[_direccion].operativo == false,\r\n            \"Solo cajeros pueden realizar la operacion.\"\r\n        );\r\n\r\n        _;\r\n    }\r\n\r\n    modifier UnicamenteaddMaestro(address _direccion) {\r\n        require(\r\n            _direccion == _addMaestro,\r\n            \"Solo el Maestro puede realizar la operacion.\"\r\n        );\r\n        _;\r\n    }\r\n\r\n    //--------------------------------------------------FUNCIONES----------------------------------------\r\n    // Asignar Cajeros\r\n    function _AsigarCajero(address _addCajero)\r\n        public\r\n        UnicamenteaddMaestro(msg.sender)\r\n    {\r\n        _cajeros[_addCajero] = cajero(_NombreDelNegocio, 0, true);\r\n        transfer(_addCajero, 100000);\r\n    }\r\n\r\n    // Saldo de Puntos \r\n    function SaldoGeneral(address address_) public view returns (uint256) {\r\n        return balanceOf(address_);\r\n    }\r\n\r\n    function transferTokens(address _addCajero, uint amount)\r\n        public\r\n    {\r\n        transfer(_addCajero, amount*100);\r\n    }\r\n}\r\n",
  "sourcePath": "C:\\Users\\Gustavo\\Desktop\\ra\\fidelizame-app\\src\\contracts\\NegocioFidelizado.sol",
  "compiler": {
    "name": "solc",
    "version": "0.8.8+commit.dddeac2f.Emscripten.clang"
  },
  "schemaVersion": "3.4.2",
  "updatedAt": "2022-10-28T20:46:44.372Z",
  "networkType": "ethereum",
  "devdoc": {
    "kind": "dev",
    "methods": {
      "allowance(address,address)": {
        "details": "See {IERC20-allowance}."
      },
      "approve(address,uint256)": {
        "details": "See {IERC20-approve}. NOTE: If `amount` is the maximum `uint256`, the allowance is not updated on `transferFrom`. This is semantically equivalent to an infinite approval. Requirements: - `spender` cannot be the zero address."
      },
      "balanceOf(address)": {
        "details": "See {IERC20-balanceOf}."
      },
      "decimals()": {
        "details": "Returns the number of decimals used to get its user representation. For example, if `decimals` equals `2`, a balance of `505` tokens should be displayed to a user as `5.05` (`505 / 10 ** 2`). Tokens usually opt for a value of 18, imitating the relationship between Ether and Wei. This is the value {ERC20} uses, unless this function is overridden; NOTE: This information is only used for _display_ purposes: it in no way affects any of the arithmetic of the contract, including {IERC20-balanceOf} and {IERC20-transfer}."
      },
      "decreaseAllowance(address,uint256)": {
        "details": "Atomically decreases the allowance granted to `spender` by the caller. This is an alternative to {approve} that can be used as a mitigation for problems described in {IERC20-approve}. Emits an {Approval} event indicating the updated allowance. Requirements: - `spender` cannot be the zero address. - `spender` must have allowance for the caller of at least `subtractedValue`."
      },
      "increaseAllowance(address,uint256)": {
        "details": "Atomically increases the allowance granted to `spender` by the caller. This is an alternative to {approve} that can be used as a mitigation for problems described in {IERC20-approve}. Emits an {Approval} event indicating the updated allowance. Requirements: - `spender` cannot be the zero address."
      },
      "name()": {
        "details": "Returns the name of the token."
      },
      "symbol()": {
        "details": "Returns the symbol of the token, usually a shorter version of the name."
      },
      "totalSupply()": {
        "details": "See {IERC20-totalSupply}."
      },
      "transfer(address,uint256)": {
        "details": "See {IERC20-transfer}. Requirements: - `to` cannot be the zero address. - the caller must have a balance of at least `amount`."
      },
      "transferFrom(address,address,uint256)": {
        "details": "See {IERC20-transferFrom}. Emits an {Approval} event indicating the updated allowance. This is not required by the EIP. See the note at the beginning of {ERC20}. NOTE: Does not update the allowance if the current allowance is the maximum `uint256`. Requirements: - `from` and `to` cannot be the zero address. - `from` must have a balance of at least `amount`. - the caller must have allowance for ``from``'s tokens of at least `amount`."
      }
    },
    "version": 1
  },
  "userdoc": {
    "kind": "user",
    "methods": {},
    "version": 1
  }
}